{
  "contractName": "MyContract",
  "abi": [
    {
      "constant": true,
      "inputs": [
        {
          "internalType": "uint256",
          "name": "",
          "type": "uint256"
        }
      ],
      "name": "users",
      "outputs": [
        {
          "internalType": "uint256",
          "name": "phoneNumber",
          "type": "uint256"
        },
        {
          "internalType": "uint256",
          "name": "pin",
          "type": "uint256"
        },
        {
          "internalType": "uint256",
          "name": "balance",
          "type": "uint256"
        }
      ],
      "payable": false,
      "stateMutability": "view",
      "type": "function"
    },
    {
      "constant": false,
      "inputs": [
        {
          "internalType": "uint256",
          "name": "phoneNumber",
          "type": "uint256"
        },
        {
          "internalType": "uint256",
          "name": "pin",
          "type": "uint256"
        }
      ],
      "name": "createUser",
      "outputs": [],
      "payable": false,
      "stateMutability": "nonpayable",
      "type": "function"
    },
    {
      "constant": false,
      "inputs": [
        {
          "internalType": "uint256",
          "name": "phoneNumber",
          "type": "uint256"
        },
        {
          "internalType": "uint256",
          "name": "amount",
          "type": "uint256"
        }
      ],
      "name": "updateUser",
      "outputs": [],
      "payable": false,
      "stateMutability": "nonpayable",
      "type": "function"
    },
    {
      "constant": false,
      "inputs": [
        {
          "internalType": "uint256",
          "name": "phoneNumber",
          "type": "uint256"
        },
        {
          "internalType": "uint256",
          "name": "amount",
          "type": "uint256"
        },
        {
          "internalType": "uint256",
          "name": "receiver",
          "type": "uint256"
        }
      ],
      "name": "transferFunds",
      "outputs": [],
      "payable": false,
      "stateMutability": "nonpayable",
      "type": "function"
    },
    {
      "constant": true,
      "inputs": [
        {
          "internalType": "uint256",
          "name": "phoneNumber",
          "type": "uint256"
        }
      ],
      "name": "readUser",
      "outputs": [
        {
          "internalType": "uint256",
          "name": "",
          "type": "uint256"
        },
        {
          "internalType": "uint256",
          "name": "",
          "type": "uint256"
        }
      ],
      "payable": false,
      "stateMutability": "view",
      "type": "function"
    },
    {
      "constant": false,
      "inputs": [
        {
          "internalType": "uint256",
          "name": "phoneNumber",
          "type": "uint256"
        }
      ],
      "name": "deleteUser",
      "outputs": [],
      "payable": false,
      "stateMutability": "nonpayable",
      "type": "function"
    }
  ],
  "bytecode": "0x608060405234801561001057600080fd5b5061048d806100206000396000f3fe608060405234801561001057600080fd5b50600436106100625760003560e01c80630567a32c14610067578063059b150c1461009f5780630d70e5d0146100e1578063217128f41461012a578063365b98b21461016257806338f14845146101b2575b600080fd5b61009d6004803603604081101561007d57600080fd5b8101908080359060200190929190803590602001909291905050506101e0565b005b6100df600480360360608110156100b557600080fd5b81019080803590602001909291908035906020019092919080359060200190929190505050610215565b005b61010d600480360360208110156100f757600080fd5b81019080803590602001909291905050506102bc565b604051808381526020018281526020019250505060405180910390f35b6101606004803603604081101561014057600080fd5b810190808035906020019092919080359060200190929190505050610314565b005b61018e6004803603602081101561017857600080fd5b8101908080359060200190929190505050610382565b60405180848152602001838152602001828152602001935050505060405180910390f35b6101de600480360360208110156101c857600080fd5b81019080803590602001909291905050506103b9565b005b60006101eb83610400565b905081600082815481106101fb57fe5b906000526020600020906003020160020181905550505050565b600061022084610400565b9050826000828154811061023057fe5b906000526020600020906003020160020154036000828154811061025057fe5b906000526020600020906003020160020181905550600061027083610400565b9050836000828154811061028057fe5b90600052602060002090600302016002015401600082815481106102a057fe5b9060005260206000209060030201600201819055505050505050565b60008060006102ca84610400565b9050600081815481106102d957fe5b906000526020600020906003020160000154600082815481106102f857fe5b9060005260206000209060030201600201549250925050915091565b600060405180606001604052808481526020018381526020016000815250908060018154018082558091505090600182039060005260206000209060030201600090919290919091506000820151816000015560208201518160010155604082015181600201555050505050565b6000818154811061038f57fe5b90600052602060002090600302016000915090508060000154908060010154908060020154905083565b60006103c482610400565b9050600081815481106103d357fe5b90600052602060002090600302016000808201600090556001820160009055600282016000905550505050565b600080600090505b60008054905081101561045157826000828154811061042357fe5b90600052602060002090600302016000015414156104445780915050610453565b8080600101915050610408565b505b91905056fea265627a7a723158205f38909cc5466015789d5c56cf24e21c4f45d71ab4f04d3716b686ff84e016b564736f6c63430005100032",
  "source": "pragma solidity ^0.5.0;\n\ncontract MyContract {\n\n\tstruct User {\n\t\tuint phoneNumber;\n\t\tuint pin;\n\t\tuint balance;\t\t// How much cash they got in their account\n\t}\n\n\t// State variable - we will be storing user data here \n\tUser[] public users;\n\n\tfunction createUser(uint phoneNumber, uint pin) public {\n\t\tusers.push(User(phoneNumber, pin, 0));\n\t}\n\n\t// Update user funds\n\tfunction updateUser(uint phoneNumber, uint amount) public {\n\t\tuint i = findUser(phoneNumber);\t\n\t\tusers[i].balance = amount;\n\t}\n\n\tfunction transferFunds(uint phoneNumber, uint amount, uint receiver) public {\n\t\tuint i = findUser(phoneNumber);\t\n\t\tusers[i].balance = users[i].balance - amount;\n\n\t\tuint j = findUser(receiver);\n\t\tusers[j].balance = users[j].balance + amount;\n\t}\n\n\tfunction readUser(uint phoneNumber) public view returns (uint, uint) {\n\t\tuint i = findUser(phoneNumber);\n\t\treturn (users[i].phoneNumber, users[i].balance); \n\t}\n\n\tfunction deleteUser(uint phoneNumber) public {\n\t\tuint i = findUser(phoneNumber);\n\t\tdelete users[i];\n\t}\n\n\t// Code that can search inside the user array\n\tfunction findUser(uint phoneNumber) internal view returns (uint) {\n\t\tfor(uint i = 0; i < users.length; i++) {\n\t\t\tif(users[i].phoneNumber == phoneNumber) {\n\t\t\t\treturn i;\t\n\t\t\t}\n\t\t}\n\t}\n}\n",
  "sourcePath": "/Users/nathan/Code/personal/Hackwestern7/contracts/MyContract.sol",
  "compiler": {
    "name": "solc",
    "version": "0.5.16+commit.9c3226ce.Emscripten.clang"
  },
  "schemaVersion": "3.3.2",
  "updatedAt": "2020-11-22T06:38:04.874Z",
  "networkType": "ethereum",
  "devdoc": {
    "methods": {}
  },
  "userdoc": {
    "methods": {}
  }
}