{
  "contractName": "MyContract",
  "abi": [
    {
      "constant": true,
      "inputs": [
        {
          "internalType": "uint256",
          "name": "",
          "type": "uint256"
        }
      ],
      "name": "users",
      "outputs": [
        {
          "internalType": "uint256",
          "name": "phoneNumber",
          "type": "uint256"
        },
        {
          "internalType": "uint256",
          "name": "pin",
          "type": "uint256"
        },
        {
          "internalType": "uint256",
          "name": "balance",
          "type": "uint256"
        }
      ],
      "payable": false,
      "stateMutability": "view",
      "type": "function"
    },
    {
      "constant": false,
      "inputs": [
        {
          "internalType": "uint256",
          "name": "phoneNumber",
          "type": "uint256"
        },
        {
          "internalType": "uint256",
          "name": "pin",
          "type": "uint256"
        }
      ],
      "name": "createUser",
      "outputs": [],
      "payable": false,
      "stateMutability": "nonpayable",
      "type": "function"
    },
    {
      "constant": true,
      "inputs": [
        {
          "internalType": "uint256",
          "name": "phoneNumber",
          "type": "uint256"
        }
      ],
      "name": "readUser",
      "outputs": [
        {
          "internalType": "uint256",
          "name": "",
          "type": "uint256"
        },
        {
          "internalType": "uint256",
          "name": "",
          "type": "uint256"
        }
      ],
      "payable": false,
      "stateMutability": "view",
      "type": "function"
    },
    {
      "constant": false,
      "inputs": [
        {
          "internalType": "uint256",
          "name": "phoneNumber",
          "type": "uint256"
        }
      ],
      "name": "deleteUser",
      "outputs": [],
      "payable": false,
      "stateMutability": "nonpayable",
      "type": "function"
    }
  ],
  "bytecode": "0x608060405234801561001057600080fd5b50610319806100206000396000f3fe608060405234801561001057600080fd5b506004361061004c5760003560e01c80630d70e5d014610051578063217128f41461009a578063365b98b2146100d257806338f1484514610122575b600080fd5b61007d6004803603602081101561006757600080fd5b8101908080359060200190929190505050610150565b604051808381526020018281526020019250505060405180910390f35b6100d0600480360360408110156100b057600080fd5b8101908080359060200190929190803590602001909291905050506101a8565b005b6100fe600480360360208110156100e857600080fd5b8101908080359060200190929190505050610216565b60405180848152602001838152602001828152602001935050505060405180910390f35b61014e6004803603602081101561013857600080fd5b810190808035906020019092919050505061024d565b005b600080600061015e8461028c565b90506000818154811061016d57fe5b9060005260206000209060030201600001546000828154811061018c57fe5b9060005260206000209060030201600201549250925050915091565b600060405180606001604052808481526020018381526020016000815250908060018154018082558091505090600182039060005260206000209060030201600090919290919091506000820151816000015560208201518160010155604082015181600201555050505050565b6000818154811061022357fe5b90600052602060002090600302016000915090508060000154908060010154908060020154905083565b60008190506000818154811061025f57fe5b90600052602060002090600302016000808201600090556001820160009055600282016000905550505050565b600080600090505b6000805490508110156102dd5782600082815481106102af57fe5b90600052602060002090600302016000015414156102d057809150506102df565b8080600101915050610294565b505b91905056fea265627a7a723158202d34a4b075bad69da796a5795bcda05e47973f74e7791589d14fa6773664b1c164736f6c63430005100032",
  "source": "pragma solidity ^0.5.0;\n\ncontract MyContract {\n\n\tstruct User {\n\t\tuint phoneNumber;\n\t\tuint pin;\n\t\tuint balance;\t\t// How much cash they got in their account\n\t}\n\n\t// State variable - we will be storing user data here \n\tUser[] public users;\n\n\tfunction createUser(uint phoneNumber, uint pin) public {\n\t\tusers.push(User(phoneNumber, pin, 0));\n\t}\n\n\t/*\n\t// Update user funds\n\tfunction updateUser(uint _id, string memory _name) public {\n\t\tuint i = findUser(_id);\t\n\t\tusers[i].name = _name;\n\t}\n\t*/\n\n\tfunction readUser(uint phoneNumber) public view returns (uint, uint) {\n\t\tuint i = findUser(phoneNumber);\n\t\treturn (users[i].phoneNumber, users[i].balance); \n\t}\n\n\tfunction deleteUser(uint phoneNumber) public {\n\t\tuint i = phoneNumber;\n\t\tdelete users[i];\n\t}\n\n\t// Code that can search inside the user array\n\tfunction findUser(uint phoneNumber) internal view returns (uint) {\n\t\tfor(uint i = 0; i < users.length; i++) {\n\t\t\tif(users[i].phoneNumber == phoneNumber) {\n\t\t\t\treturn i;\t\n\t\t\t}\n\t\t}\n\t}\n}\n",
  "sourcePath": "/Users/nathan/Code/personal/Hackwestern7/contracts/MyContract.sol",
  "compiler": {
    "name": "solc",
    "version": "0.5.16+commit.9c3226ce.Emscripten.clang"
  },
  "schemaVersion": "3.3.2",
  "updatedAt": "2020-11-21T23:49:57.502Z",
  "networkType": "ethereum",
  "devdoc": {
    "methods": {}
  },
  "userdoc": {
    "methods": {}
  }
}