{
  "contractName": "MyContract",
  "abi": [
    {
      "constant": true,
      "inputs": [
        {
          "internalType": "uint256",
          "name": "",
          "type": "uint256"
        }
      ],
      "name": "users",
      "outputs": [
        {
          "internalType": "uint256",
          "name": "phoneNumber",
          "type": "uint256"
        },
        {
          "internalType": "uint256",
          "name": "pin",
          "type": "uint256"
        },
        {
          "internalType": "uint256",
          "name": "balance",
          "type": "uint256"
        }
      ],
      "payable": false,
      "stateMutability": "view",
      "type": "function"
    },
    {
      "constant": false,
      "inputs": [
        {
          "internalType": "uint256",
          "name": "phoneNumber",
          "type": "uint256"
        },
        {
          "internalType": "uint256",
          "name": "pin",
          "type": "uint256"
        }
      ],
      "name": "createUser",
      "outputs": [],
      "payable": false,
      "stateMutability": "nonpayable",
      "type": "function"
    },
    {
      "constant": false,
      "inputs": [
        {
          "internalType": "uint256",
          "name": "phoneNumber",
          "type": "uint256"
        },
        {
          "internalType": "uint256",
          "name": "amount",
          "type": "uint256"
        }
      ],
      "name": "updateUser",
      "outputs": [],
      "payable": false,
      "stateMutability": "nonpayable",
      "type": "function"
    },
    {
      "constant": true,
      "inputs": [
        {
          "internalType": "uint256",
          "name": "phoneNumber",
          "type": "uint256"
        }
      ],
      "name": "readUser",
      "outputs": [
        {
          "internalType": "uint256",
          "name": "",
          "type": "uint256"
        },
        {
          "internalType": "uint256",
          "name": "",
          "type": "uint256"
        }
      ],
      "payable": false,
      "stateMutability": "view",
      "type": "function"
    },
    {
      "constant": false,
      "inputs": [
        {
          "internalType": "uint256",
          "name": "phoneNumber",
          "type": "uint256"
        }
      ],
      "name": "deleteUser",
      "outputs": [],
      "payable": false,
      "stateMutability": "nonpayable",
      "type": "function"
    }
  ],
  "bytecode": "0x608060405234801561001057600080fd5b50610391806100206000396000f3fe608060405234801561001057600080fd5b50600436106100575760003560e01c80630567a32c1461005c5780630d70e5d014610094578063217128f4146100dd578063365b98b21461011557806338f1484514610165575b600080fd5b6100926004803603604081101561007257600080fd5b810190808035906020019092919080359060200190929190505050610193565b005b6100c0600480360360208110156100aa57600080fd5b81019080803590602001909291905050506101c8565b604051808381526020018281526020019250505060405180910390f35b610113600480360360408110156100f357600080fd5b810190808035906020019092919080359060200190929190505050610220565b005b6101416004803603602081101561012b57600080fd5b810190808035906020019092919050505061028e565b60405180848152602001838152602001828152602001935050505060405180910390f35b6101916004803603602081101561017b57600080fd5b81019080803590602001909291905050506102c5565b005b600061019e83610304565b905081600082815481106101ae57fe5b906000526020600020906003020160020181905550505050565b60008060006101d684610304565b9050600081815481106101e557fe5b9060005260206000209060030201600001546000828154811061020457fe5b9060005260206000209060030201600201549250925050915091565b600060405180606001604052808481526020018381526020016000815250908060018154018082558091505090600182039060005260206000209060030201600090919290919091506000820151816000015560208201518160010155604082015181600201555050505050565b6000818154811061029b57fe5b90600052602060002090600302016000915090508060000154908060010154908060020154905083565b6000819050600081815481106102d757fe5b90600052602060002090600302016000808201600090556001820160009055600282016000905550505050565b600080600090505b60008054905081101561035557826000828154811061032757fe5b90600052602060002090600302016000015414156103485780915050610357565b808060010191505061030c565b505b91905056fea265627a7a723158200a3ee9ae37f30908b3a677361171739787a6802331da491886fe50e4094f427264736f6c63430005100032",
  "source": "pragma solidity ^0.5.0;\n\ncontract MyContract {\n\n\tstruct User {\n\t\tuint phoneNumber;\n\t\tuint pin;\n\t\tuint balance;\t\t// How much cash they got in their account\n\t}\n\n\t// State variable - we will be storing user data here \n\tUser[] public users;\n\n\tfunction createUser(uint phoneNumber, uint pin) public {\n\t\tusers.push(User(phoneNumber, pin, 0));\n\t}\n\n\t// Update user funds\n\tfunction updateUser(uint phoneNumber, uint amount) public {\n\t\tuint i = findUser(phoneNumber);\t\n\t\tusers[i].balance = amount;\n\t}\n\n\tfunction readUser(uint phoneNumber) public view returns (uint, uint) {\n\t\tuint i = findUser(phoneNumber);\n\t\treturn (users[i].phoneNumber, users[i].balance); \n\t}\n\n\tfunction deleteUser(uint phoneNumber) public {\n\t\tuint i = phoneNumber;\n\t\tdelete users[i];\n\t}\n\n\t// Code that can search inside the user array\n\tfunction findUser(uint phoneNumber) internal view returns (uint) {\n\t\tfor(uint i = 0; i < users.length; i++) {\n\t\t\tif(users[i].phoneNumber == phoneNumber) {\n\t\t\t\treturn i;\t\n\t\t\t}\n\t\t}\n\t}\n}\n",
  "sourcePath": "/Users/nathan/Code/personal/Hackwestern7/contracts/MyContract.sol",
  "compiler": {
    "name": "solc",
    "version": "0.5.16+commit.9c3226ce.Emscripten.clang"
  },
  "schemaVersion": "3.3.2",
  "updatedAt": "2020-11-22T01:32:04.081Z",
  "networkType": "ethereum",
  "devdoc": {
    "methods": {}
  },
  "userdoc": {
    "methods": {}
  }
}